{
  "_format": "hh-sol-artifact-1",
  "contractName": "Campaigns",
  "sourceName": "contracts/Campaigns.sol",
  "abi": [
    {
      "inputs": [],
      "stateMutability": "nonpayable",
      "type": "constructor"
    },
    {
      "stateMutability": "payable",
      "type": "fallback"
    },
    {
      "inputs": [
        {
          "internalType": "uint256",
          "name": "",
          "type": "uint256"
        }
      ],
      "name": "campaigns",
      "outputs": [
        {
          "internalType": "string",
          "name": "name",
          "type": "string"
        },
        {
          "internalType": "string",
          "name": "display",
          "type": "string"
        },
        {
          "internalType": "string",
          "name": "website",
          "type": "string"
        },
        {
          "internalType": "string",
          "name": "details",
          "type": "string"
        },
        {
          "internalType": "uint64",
          "name": "target",
          "type": "uint64"
        }
      ],
      "stateMutability": "view",
      "type": "function"
    },
    {
      "inputs": [],
      "name": "getCampaigns",
      "outputs": [
        {
          "components": [
            {
              "internalType": "string",
              "name": "name",
              "type": "string"
            },
            {
              "internalType": "string",
              "name": "display",
              "type": "string"
            },
            {
              "internalType": "string",
              "name": "website",
              "type": "string"
            },
            {
              "internalType": "string",
              "name": "details",
              "type": "string"
            },
            {
              "internalType": "uint64",
              "name": "target",
              "type": "uint64"
            }
          ],
          "internalType": "struct Campaigns.Campaign[]",
          "name": "",
          "type": "tuple[]"
        }
      ],
      "stateMutability": "view",
      "type": "function"
    },
    {
      "inputs": [
        {
          "internalType": "string",
          "name": "_name",
          "type": "string"
        },
        {
          "internalType": "string",
          "name": "_display",
          "type": "string"
        },
        {
          "internalType": "string",
          "name": "_website",
          "type": "string"
        },
        {
          "internalType": "string",
          "name": "_details",
          "type": "string"
        },
        {
          "internalType": "uint64",
          "name": "target",
          "type": "uint64"
        }
      ],
      "name": "runCampaign",
      "outputs": [],
      "stateMutability": "nonpayable",
      "type": "function"
    },
    {
      "stateMutability": "payable",
      "type": "receive"
    }
  ],
  "bytecode": "0x60806040523480156200001157600080fd5b50620000586040518060400160405280601e81526020017f4465706c6f79696e6720612043616d706169676e20636f6e74726163740a00008152506200005e60201b60201c565b62000258565b620000fe8160405160240162000075919062000205565b6040516020818303038152906040527f41304fac000000000000000000000000000000000000000000000000000000007bffffffffffffffffffffffffffffffffffffffffffffffffffffffff19166020820180517bffffffffffffffffffffffffffffffffffffffffffffffffffffffff83818316178352505050506200010160201b60201c565b50565b6200012781620001226200012a60201b62000715176200014b60201b60201c565b60201c565b50565b60006a636f6e736f6c652e6c6f679050600080835160208501845afa505050565b6200015f60201b6200073617819050919050565b6200016962000229565b565b600081519050919050565b600082825260208201905092915050565b60005b83811015620001a75780820151818401526020810190506200018a565b60008484015250505050565b6000601f19601f8301169050919050565b6000620001d1826200016b565b620001dd818562000176565b9350620001ef81856020860162000187565b620001fa81620001b3565b840191505092915050565b60006020820190508181036000830152620002218184620001c4565b905092915050565b7f4e487b7100000000000000000000000000000000000000000000000000000000600052605160045260246000fd5b61103080620002686000396000f3fe6080604052600436106100385760003560e01c80630ba7bd0014610041578063141961bc1461006a578063a6b03633146100ab5761003f565b3661003f57005b005b34801561004d57600080fd5b50610068600480360381019061006391906108da565b6100d6565b005b34801561007657600080fd5b50610091600480360381019061008c91906109fb565b6101c2565b6040516100a2959493929190610ab6565b60405180910390f35b3480156100b757600080fd5b506100c061043c565b6040516100cd9190610ccb565b60405180910390f35b60006040518060a001604052808781526020018681526020018581526020018481526020018367ffffffffffffffff16815250908060018154018082558091505060019003906000526020600020906005020160009091909190915060008201518160000190816101479190610ef9565b50602082015181600101908161015d9190610ef9565b5060408201518160020190816101739190610ef9565b5060608201518160030190816101899190610ef9565b5060808201518160040160006101000a81548167ffffffffffffffff021916908367ffffffffffffffff16021790555050505050505050565b600081815481106101d257600080fd5b90600052602060002090600502016000915090508060000180546101f590610d1c565b80601f016020809104026020016040519081016040528092919081815260200182805461022190610d1c565b801561026e5780601f106102435761010080835404028352916020019161026e565b820191906000526020600020905b81548152906001019060200180831161025157829003601f168201915b50505050509080600101805461028390610d1c565b80601f01602080910402602001604051908101604052809291908181526020018280546102af90610d1c565b80156102fc5780601f106102d1576101008083540402835291602001916102fc565b820191906000526020600020905b8154815290600101906020018083116102df57829003601f168201915b50505050509080600201805461031190610d1c565b80601f016020809104026020016040519081016040528092919081815260200182805461033d90610d1c565b801561038a5780601f1061035f5761010080835404028352916020019161038a565b820191906000526020600020905b81548152906001019060200180831161036d57829003601f168201915b50505050509080600301805461039f90610d1c565b80601f01602080910402602001604051908101604052809291908181526020018280546103cb90610d1c565b80156104185780601f106103ed57610100808354040283529160200191610418565b820191906000526020600020905b8154815290600101906020018083116103fb57829003601f168201915b5050505050908060040160009054906101000a900467ffffffffffffffff16905085565b60606000805480602002602001604051908101604052809291908181526020016000905b8282101561070c57838290600052602060002090600502016040518060a001604052908160008201805461049390610d1c565b80601f01602080910402602001604051908101604052809291908181526020018280546104bf90610d1c565b801561050c5780601f106104e15761010080835404028352916020019161050c565b820191906000526020600020905b8154815290600101906020018083116104ef57829003601f168201915b5050505050815260200160018201805461052590610d1c565b80601f016020809104026020016040519081016040528092919081815260200182805461055190610d1c565b801561059e5780601f106105735761010080835404028352916020019161059e565b820191906000526020600020905b81548152906001019060200180831161058157829003601f168201915b505050505081526020016002820180546105b790610d1c565b80601f01602080910402602001604051908101604052809291908181526020018280546105e390610d1c565b80156106305780601f1061060557610100808354040283529160200191610630565b820191906000526020600020905b81548152906001019060200180831161061357829003601f168201915b5050505050815260200160038201805461064990610d1c565b80601f016020809104026020016040519081016040528092919081815260200182805461067590610d1c565b80156106c25780601f10610697576101008083540402835291602001916106c2565b820191906000526020600020905b8154815290600101906020018083116106a557829003601f168201915b505050505081526020016004820160009054906101000a900467ffffffffffffffff1667ffffffffffffffff1667ffffffffffffffff168152505081526020019060010190610460565b50505050905090565b60006a636f6e736f6c652e6c6f679050600080835160208501845afa505050565b61073e610fcb565b565b6000604051905090565b600080fd5b600080fd5b600080fd5b600080fd5b6000601f19601f8301169050919050565b7f4e487b7100000000000000000000000000000000000000000000000000000000600052604160045260246000fd5b6107a78261075e565b810181811067ffffffffffffffff821117156107c6576107c561076f565b5b80604052505050565b60006107d9610740565b90506107e5828261079e565b919050565b600067ffffffffffffffff8211156108055761080461076f565b5b61080e8261075e565b9050602081019050919050565b82818337600083830152505050565b600061083d610838846107ea565b6107cf565b90508281526020810184848401111561085957610858610759565b5b61086484828561081b565b509392505050565b600082601f83011261088157610880610754565b5b813561089184826020860161082a565b91505092915050565b600067ffffffffffffffff82169050919050565b6108b78161089a565b81146108c257600080fd5b50565b6000813590506108d4816108ae565b92915050565b600080600080600060a086880312156108f6576108f561074a565b5b600086013567ffffffffffffffff8111156109145761091361074f565b5b6109208882890161086c565b955050602086013567ffffffffffffffff8111156109415761094061074f565b5b61094d8882890161086c565b945050604086013567ffffffffffffffff81111561096e5761096d61074f565b5b61097a8882890161086c565b935050606086013567ffffffffffffffff81111561099b5761099a61074f565b5b6109a78882890161086c565b92505060806109b8888289016108c5565b9150509295509295909350565b6000819050919050565b6109d8816109c5565b81146109e357600080fd5b50565b6000813590506109f5816109cf565b92915050565b600060208284031215610a1157610a1061074a565b5b6000610a1f848285016109e6565b91505092915050565b600081519050919050565b600082825260208201905092915050565b60005b83811015610a62578082015181840152602081019050610a47565b60008484015250505050565b6000610a7982610a28565b610a838185610a33565b9350610a93818560208601610a44565b610a9c8161075e565b840191505092915050565b610ab08161089a565b82525050565b600060a0820190508181036000830152610ad08188610a6e565b90508181036020830152610ae48187610a6e565b90508181036040830152610af88186610a6e565b90508181036060830152610b0c8185610a6e565b9050610b1b6080830184610aa7565b9695505050505050565b600081519050919050565b600082825260208201905092915050565b6000819050602082019050919050565b600082825260208201905092915050565b6000610b6d82610a28565b610b778185610b51565b9350610b87818560208601610a44565b610b908161075e565b840191505092915050565b610ba48161089a565b82525050565b600060a0830160008301518482036000860152610bc78282610b62565b91505060208301518482036020860152610be18282610b62565b91505060408301518482036040860152610bfb8282610b62565b91505060608301518482036060860152610c158282610b62565b9150506080830151610c2a6080860182610b9b565b508091505092915050565b6000610c418383610baa565b905092915050565b6000602082019050919050565b6000610c6182610b25565b610c6b8185610b30565b935083602082028501610c7d85610b41565b8060005b85811015610cb95784840389528151610c9a8582610c35565b9450610ca583610c49565b925060208a01995050600181019050610c81565b50829750879550505050505092915050565b60006020820190508181036000830152610ce58184610c56565b905092915050565b7f4e487b7100000000000000000000000000000000000000000000000000000000600052602260045260246000fd5b60006002820490506001821680610d3457607f821691505b602082108103610d4757610d46610ced565b5b50919050565b60008190508160005260206000209050919050565b60006020601f8301049050919050565b600082821b905092915050565b600060088302610daf7fffffffffffffffffffffffffffffffffffffffffffffffffffffffffffffffff82610d72565b610db98683610d72565b95508019841693508086168417925050509392505050565b6000819050919050565b6000610df6610df1610dec846109c5565b610dd1565b6109c5565b9050919050565b6000819050919050565b610e1083610ddb565b610e24610e1c82610dfd565b848454610d7f565b825550505050565b600090565b610e39610e2c565b610e44818484610e07565b505050565b5b81811015610e6857610e5d600082610e31565b600181019050610e4a565b5050565b601f821115610ead57610e7e81610d4d565b610e8784610d62565b81016020851015610e96578190505b610eaa610ea285610d62565b830182610e49565b50505b505050565b600082821c905092915050565b6000610ed060001984600802610eb2565b1980831691505092915050565b6000610ee98383610ebf565b9150826002028217905092915050565b610f0282610a28565b67ffffffffffffffff811115610f1b57610f1a61076f565b5b610f258254610d1c565b610f30828285610e6c565b600060209050601f831160018114610f635760008415610f51578287015190505b610f5b8582610edd565b865550610fc3565b601f198416610f7186610d4d565b60005b82811015610f9957848901518255600182019150602085019450602081019050610f74565b86831015610fb65784890151610fb2601f891682610ebf565b8355505b6001600288020188555050505b505050505050565b7f4e487b7100000000000000000000000000000000000000000000000000000000600052605160045260246000fdfea2646970667358221220424f25bf4c078ca1114fa74193890e631c5793082fff115464461073ee4ce7ef64736f6c63430008130033",
  "linkReferences": {},
  "deployedLinkReferences": {}
}