{
  "_format": "hh-sol-artifact-1",
  "contractName": "Campaigns",
  "sourceName": "contracts/Campaigns.sol",
  "abi": [
    {
      "inputs": [],
      "stateMutability": "nonpayable",
      "type": "constructor"
    },
    {
      "inputs": [
        {
          "internalType": "uint256",
          "name": "",
          "type": "uint256"
        }
      ],
      "name": "campaigns",
      "outputs": [
        {
          "internalType": "string",
          "name": "name",
          "type": "string"
        },
        {
          "internalType": "string",
          "name": "display",
          "type": "string"
        },
        {
          "internalType": "string",
          "name": "website",
          "type": "string"
        },
        {
          "internalType": "string",
          "name": "details",
          "type": "string"
        }
      ],
      "stateMutability": "view",
      "type": "function"
    },
    {
      "inputs": [
        {
          "internalType": "string",
          "name": "_name",
          "type": "string"
        },
        {
          "internalType": "string",
          "name": "_display",
          "type": "string"
        },
        {
          "internalType": "string",
          "name": "_website",
          "type": "string"
        },
        {
          "internalType": "string",
          "name": "_details",
          "type": "string"
        }
      ],
      "name": "runCampaign",
      "outputs": [],
      "stateMutability": "nonpayable",
      "type": "function"
    }
  ],
  "bytecode": "0x60806040523480156200001157600080fd5b50620000586040518060400160405280601e81526020017f4465706c6f79696e6720612043616d706169676e20636f6e74726163740a00008152506200005e60201b60201c565b62000258565b620000fe8160405160240162000075919062000205565b6040516020818303038152906040527f41304fac000000000000000000000000000000000000000000000000000000007bffffffffffffffffffffffffffffffffffffffffffffffffffffffff19166020820180517bffffffffffffffffffffffffffffffffffffffffffffffffffffffff83818316178352505050506200010160201b60201c565b50565b6200012781620001226200012a60201b62000396176200014b60201b60201c565b60201c565b50565b60006a636f6e736f6c652e6c6f679050600080835160208501845afa505050565b6200015f60201b620003b717819050919050565b6200016962000229565b565b600081519050919050565b600082825260208201905092915050565b60005b83811015620001a75780820151818401526020810190506200018a565b60008484015250505050565b6000601f19601f8301169050919050565b6000620001d1826200016b565b620001dd818562000176565b9350620001ef81856020860162000187565b620001fa81620001b3565b840191505092915050565b60006020820190508181036000830152620002218184620001c4565b905092915050565b7f4e487b7100000000000000000000000000000000000000000000000000000000600052605160045260246000fd5b610a7880620002686000396000f3fe608060405234801561001057600080fd5b50600436106100365760003560e01c8063141961bc1461003b5780639da4daf01461006e575b600080fd5b6100556004803603810190610050919061040b565b61008a565b60405161006594939291906104c8565b60405180910390f35b6100886004803603810190610083919061065e565b6102ea565b005b6000818154811061009a57600080fd5b90600052602060002090600402016000915090508060000180546100bd90610764565b80601f01602080910402602001604051908101604052809291908181526020018280546100e990610764565b80156101365780601f1061010b57610100808354040283529160200191610136565b820191906000526020600020905b81548152906001019060200180831161011957829003601f168201915b50505050509080600101805461014b90610764565b80601f016020809104026020016040519081016040528092919081815260200182805461017790610764565b80156101c45780601f10610199576101008083540402835291602001916101c4565b820191906000526020600020905b8154815290600101906020018083116101a757829003601f168201915b5050505050908060020180546101d990610764565b80601f016020809104026020016040519081016040528092919081815260200182805461020590610764565b80156102525780601f1061022757610100808354040283529160200191610252565b820191906000526020600020905b81548152906001019060200180831161023557829003601f168201915b50505050509080600301805461026790610764565b80601f016020809104026020016040519081016040528092919081815260200182805461029390610764565b80156102e05780601f106102b5576101008083540402835291602001916102e0565b820191906000526020600020905b8154815290600101906020018083116102c357829003601f168201915b5050505050905084565b60006040518060800160405280868152602001858152602001848152602001838152509080600181540180825580915050600190039060005260206000209060040201600090919091909150600082015181600001908161034b9190610941565b5060208201518160010190816103619190610941565b5060408201518160020190816103779190610941565b50606082015181600301908161038d9190610941565b50505050505050565b60006a636f6e736f6c652e6c6f679050600080835160208501845afa505050565b6103bf610a13565b565b6000604051905090565b600080fd5b600080fd5b6000819050919050565b6103e8816103d5565b81146103f357600080fd5b50565b600081359050610405816103df565b92915050565b600060208284031215610421576104206103cb565b5b600061042f848285016103f6565b91505092915050565b600081519050919050565b600082825260208201905092915050565b60005b83811015610472578082015181840152602081019050610457565b60008484015250505050565b6000601f19601f8301169050919050565b600061049a82610438565b6104a48185610443565b93506104b4818560208601610454565b6104bd8161047e565b840191505092915050565b600060808201905081810360008301526104e2818761048f565b905081810360208301526104f6818661048f565b9050818103604083015261050a818561048f565b9050818103606083015261051e818461048f565b905095945050505050565b600080fd5b600080fd5b7f4e487b7100000000000000000000000000000000000000000000000000000000600052604160045260246000fd5b61056b8261047e565b810181811067ffffffffffffffff8211171561058a57610589610533565b5b80604052505050565b600061059d6103c1565b90506105a98282610562565b919050565b600067ffffffffffffffff8211156105c9576105c8610533565b5b6105d28261047e565b9050602081019050919050565b82818337600083830152505050565b60006106016105fc846105ae565b610593565b90508281526020810184848401111561061d5761061c61052e565b5b6106288482856105df565b509392505050565b600082601f83011261064557610644610529565b5b81356106558482602086016105ee565b91505092915050565b60008060008060808587031215610678576106776103cb565b5b600085013567ffffffffffffffff811115610696576106956103d0565b5b6106a287828801610630565b945050602085013567ffffffffffffffff8111156106c3576106c26103d0565b5b6106cf87828801610630565b935050604085013567ffffffffffffffff8111156106f0576106ef6103d0565b5b6106fc87828801610630565b925050606085013567ffffffffffffffff81111561071d5761071c6103d0565b5b61072987828801610630565b91505092959194509250565b7f4e487b7100000000000000000000000000000000000000000000000000000000600052602260045260246000fd5b6000600282049050600182168061077c57607f821691505b60208210810361078f5761078e610735565b5b50919050565b60008190508160005260206000209050919050565b60006020601f8301049050919050565b600082821b905092915050565b6000600883026107f77fffffffffffffffffffffffffffffffffffffffffffffffffffffffffffffffff826107ba565b61080186836107ba565b95508019841693508086168417925050509392505050565b6000819050919050565b600061083e610839610834846103d5565b610819565b6103d5565b9050919050565b6000819050919050565b61085883610823565b61086c61086482610845565b8484546107c7565b825550505050565b600090565b610881610874565b61088c81848461084f565b505050565b5b818110156108b0576108a5600082610879565b600181019050610892565b5050565b601f8211156108f5576108c681610795565b6108cf846107aa565b810160208510156108de578190505b6108f26108ea856107aa565b830182610891565b50505b505050565b600082821c905092915050565b6000610918600019846008026108fa565b1980831691505092915050565b60006109318383610907565b9150826002028217905092915050565b61094a82610438565b67ffffffffffffffff81111561096357610962610533565b5b61096d8254610764565b6109788282856108b4565b600060209050601f8311600181146109ab5760008415610999578287015190505b6109a38582610925565b865550610a0b565b601f1984166109b986610795565b60005b828110156109e1578489015182556001820191506020850194506020810190506109bc565b868310156109fe57848901516109fa601f891682610907565b8355505b6001600288020188555050505b505050505050565b7f4e487b7100000000000000000000000000000000000000000000000000000000600052605160045260246000fdfea26469706673582212201ba2447ab008b7bfe666024f307f8a761369716db60ea71c7ae6576f3f7dcb9c64736f6c63430008130033",
  "linkReferences": {},
  "deployedLinkReferences": {}
}